{
  "_format": "hh-sol-artifact-1",
  "contractName": "CostAudit",
  "sourceName": "contracts/CostAudit.sol",
  "abi": [
    {
      "inputs": [],
      "stateMutability": "nonpayable",
      "type": "constructor"
    },
    {
      "anonymous": false,
      "inputs": [
        {
          "indexed": true,
          "internalType": "string",
          "name": "id",
          "type": "string"
        },
        {
          "indexed": false,
          "internalType": "bytes32",
          "name": "hash",
          "type": "bytes32"
        },
        {
          "indexed": false,
          "internalType": "uint256",
          "name": "ts",
          "type": "uint256"
        }
      ],
      "name": "HashStored",
      "type": "event"
    },
    {
      "inputs": [
        {
          "internalType": "string",
          "name": "id",
          "type": "string"
        }
      ],
      "name": "getHash",
      "outputs": [
        {
          "internalType": "bytes32",
          "name": "",
          "type": "bytes32"
        },
        {
          "internalType": "uint256",
          "name": "",
          "type": "uint256"
        },
        {
          "internalType": "string",
          "name": "",
          "type": "string"
        }
      ],
      "stateMutability": "view",
      "type": "function"
    },
    {
      "inputs": [],
      "name": "owner",
      "outputs": [
        {
          "internalType": "address",
          "name": "",
          "type": "address"
        }
      ],
      "stateMutability": "view",
      "type": "function"
    },
    {
      "inputs": [
        {
          "internalType": "string",
          "name": "id",
          "type": "string"
        },
        {
          "internalType": "bytes32",
          "name": "hash",
          "type": "bytes32"
        },
        {
          "internalType": "string",
          "name": "recordType",
          "type": "string"
        }
      ],
      "name": "storeHash",
      "outputs": [],
      "stateMutability": "nonpayable",
      "type": "function"
    },
    {
      "inputs": [
        {
          "internalType": "address",
          "name": "newOwner",
          "type": "address"
        }
      ],
      "name": "transferOwnership",
      "outputs": [],
      "stateMutability": "nonpayable",
      "type": "function"
    }
  ],
  "bytecode": "0x608060405234801561001057600080fd5b50600080546001600160a01b03191633179055610717806100326000396000f3fe608060405234801561001057600080fd5b506004361061004c5760003560e01c80635b6beeb9146100515780638da5cb5b1461007c57806396794ed7146100a7578063f2fde38b146100bc575b600080fd5b61006461005f366004610429565b6100cf565b6040516100739392919061046b565b60405180910390f35b60005461008f906001600160a01b031681565b6040516001600160a01b039091168152602001610073565b6100ba6100b53660046104c8565b6101c4565b005b6100ba6100ca366004610542565b61030e565b60008060606000600186866040516100e8929190610572565b9081526020016040518091039020604051806060016040529081600082015481526020016001820154815260200160028201805461012590610582565b80601f016020809104026020016040519081016040528092919081815260200182805461015190610582565b801561019e5780601f106101735761010080835404028352916020019161019e565b820191906000526020600020905b81548152906001019060200180831161018157829003601f168201915b505050919092525050815160208301516040909301519099929850965090945050505050565b6000546001600160a01b031633146102235760405162461bcd60e51b815260206004820152601e60248201527f436f737441756469743a2063616c6c6572206973206e6f74206f776e6572000060448201526064015b60405180910390fd5b604051806060016040528084815260200142815260200183838080601f01602080910402602001604051908101604052809392919081815260200183838082843760009201919091525050509152506040516001906102859088908890610572565b90815260408051602092819003830190208351815591830151600183015582015160028201906102b59082610621565b50506040516102c8915086908690610572565b60408051918290038220858352426020840152917f7b27b9c7d2fd3b01c0a12618135e893db0dfe57566c652353d431a28eaa4d038910160405180910390a25050505050565b6000546001600160a01b031633146103685760405162461bcd60e51b815260206004820152601e60248201527f436f737441756469743a2063616c6c6572206973206e6f74206f776e65720000604482015260640161021a565b6001600160a01b0381166103be5760405162461bcd60e51b815260206004820152601760248201527f436f737441756469743a207a65726f2061646472657373000000000000000000604482015260640161021a565b600080546001600160a01b0319166001600160a01b0392909216919091179055565b60008083601f8401126103f257600080fd5b50813567ffffffffffffffff81111561040a57600080fd5b60208301915083602082850101111561042257600080fd5b9250929050565b6000806020838503121561043c57600080fd5b823567ffffffffffffffff81111561045357600080fd5b61045f858286016103e0565b90969095509350505050565b83815260006020848184015260606040840152835180606085015260005b818110156104a557858101830151858201608001528201610489565b506000608082860101526080601f19601f83011685010192505050949350505050565b6000806000806000606086880312156104e057600080fd5b853567ffffffffffffffff808211156104f857600080fd5b61050489838a016103e0565b909750955060208801359450604088013591508082111561052457600080fd5b50610531888289016103e0565b969995985093965092949392505050565b60006020828403121561055457600080fd5b81356001600160a01b038116811461056b57600080fd5b9392505050565b8183823760009101908152919050565b600181811c9082168061059657607f821691505b6020821081036105b657634e487b7160e01b600052602260045260246000fd5b50919050565b634e487b7160e01b600052604160045260246000fd5b601f82111561061c57600081815260208120601f850160051c810160208610156105f95750805b601f850160051c820191505b8181101561061857828155600101610605565b5050505b505050565b815167ffffffffffffffff81111561063b5761063b6105bc565b61064f816106498454610582565b846105d2565b602080601f831160018114610684576000841561066c5750858301515b600019600386901b1c1916600185901b178555610618565b600085815260208120601f198616915b828110156106b357888601518255948401946001909101908401610694565b50858210156106d15787850151600019600388901b60f8161c191681555b5050505050600190811b0190555056fea264697066735822122015a218403391e17406db80d29020fc2bbef5f393bfa035804b564b3eef83383c64736f6c63430008130033",
  "linkReferences": {},
  "deployedLinkReferences": {}
}