{"contracts/CostAudit.sol":{"CostAudit":{"abi":[{"inputs":[],"stateMutability":"nonpayable","type":"constructor"},{"anonymous":false,"inputs":[{"indexed":true,"internalType":"string","name":"id","type":"string"},{"indexed":false,"internalType":"bytes32","name":"hash","type":"bytes32"},{"indexed":false,"internalType":"uint256","name":"ts","type":"uint256"}],"name":"HashStored","type":"event"},{"inputs":[{"internalType":"string","name":"id","type":"string"}],"name":"getHash","outputs":[{"internalType":"bytes32","name":"","type":"bytes32"},{"internalType":"uint256","name":"","type":"uint256"},{"internalType":"string","name":"","type":"string"}],"stateMutability":"view","type":"function"},{"inputs":[],"name":"owner","outputs":[{"internalType":"address","name":"","type":"address"}],"stateMutability":"view","type":"function"},{"inputs":[{"internalType":"string","name":"id","type":"string"},{"internalType":"bytes32","name":"hash","type":"bytes32"},{"internalType":"string","name":"recordType","type":"string"}],"name":"storeHash","outputs":[],"stateMutability":"nonpayable","type":"function"},{"inputs":[{"internalType":"address","name":"newOwner","type":"address"}],"name":"transferOwnership","outputs":[],"stateMutability":"nonpayable","type":"function"}],"evm":{"bytecode":{"linkReferences":{},"object":"608060405234801561001057600080fd5b50600080546001600160a01b03191633179055610717806100326000396000f3fe608060405234801561001057600080fd5b506004361061004c5760003560e01c80635b6beeb9146100515780638da5cb5b1461007c57806396794ed7146100a7578063f2fde38b146100bc575b600080fd5b61006461005f366004610429565b6100cf565b6040516100739392919061046b565b60405180910390f35b60005461008f906001600160a01b031681565b6040516001600160a01b039091168152602001610073565b6100ba6100b53660046104c8565b6101c4565b005b6100ba6100ca366004610542565b61030e565b60008060606000600186866040516100e8929190610572565b9081526020016040518091039020604051806060016040529081600082015481526020016001820154815260200160028201805461012590610582565b80601f016020809104026020016040519081016040528092919081815260200182805461015190610582565b801561019e5780601f106101735761010080835404028352916020019161019e565b820191906000526020600020905b81548152906001019060200180831161018157829003601f168201915b505050919092525050815160208301516040909301519099929850965090945050505050565b6000546001600160a01b031633146102235760405162461bcd60e51b815260206004820152601e60248201527f436f737441756469743a2063616c6c6572206973206e6f74206f776e6572000060448201526064015b60405180910390fd5b604051806060016040528084815260200142815260200183838080601f01602080910402602001604051908101604052809392919081815260200183838082843760009201919091525050509152506040516001906102859088908890610572565b90815260408051602092819003830190208351815591830151600183015582015160028201906102b59082610621565b50506040516102c8915086908690610572565b60408051918290038220858352426020840152917f7b27b9c7d2fd3b01c0a12618135e893db0dfe57566c652353d431a28eaa4d038910160405180910390a25050505050565b6000546001600160a01b031633146103685760405162461bcd60e51b815260206004820152601e60248201527f436f737441756469743a2063616c6c6572206973206e6f74206f776e65720000604482015260640161021a565b6001600160a01b0381166103be5760405162461bcd60e51b815260206004820152601760248201527f436f737441756469743a207a65726f2061646472657373000000000000000000604482015260640161021a565b600080546001600160a01b0319166001600160a01b0392909216919091179055565b60008083601f8401126103f257600080fd5b50813567ffffffffffffffff81111561040a57600080fd5b60208301915083602082850101111561042257600080fd5b9250929050565b6000806020838503121561043c57600080fd5b823567ffffffffffffffff81111561045357600080fd5b61045f858286016103e0565b90969095509350505050565b83815260006020848184015260606040840152835180606085015260005b818110156104a557858101830151858201608001528201610489565b506000608082860101526080601f19601f83011685010192505050949350505050565b6000806000806000606086880312156104e057600080fd5b853567ffffffffffffffff808211156104f857600080fd5b61050489838a016103e0565b909750955060208801359450604088013591508082111561052457600080fd5b50610531888289016103e0565b969995985093965092949392505050565b60006020828403121561055457600080fd5b81356001600160a01b038116811461056b57600080fd5b9392505050565b8183823760009101908152919050565b600181811c9082168061059657607f821691505b6020821081036105b657634e487b7160e01b600052602260045260246000fd5b50919050565b634e487b7160e01b600052604160045260246000fd5b601f82111561061c57600081815260208120601f850160051c810160208610156105f95750805b601f850160051c820191505b8181101561061857828155600101610605565b5050505b505050565b815167ffffffffffffffff81111561063b5761063b6105bc565b61064f816106498454610582565b846105d2565b602080601f831160018114610684576000841561066c5750858301515b600019600386901b1c1916600185901b178555610618565b600085815260208120601f198616915b828110156106b357888601518255948401946001909101908401610694565b50858210156106d15787850151600019600388901b60f8161c191681555b5050505050600190811b0190555056fea264697066735822122015a218403391e17406db80d29020fc2bbef5f393bfa035804b564b3eef83383c64736f6c63430008130033","opcodes":"PUSH1 0x80 PUSH1 0x40 MSTORE CALLVALUE DUP1 ISZERO PUSH2 0x10 JUMPI PUSH1 0x0 DUP1 REVERT JUMPDEST POP PUSH1 0x0 DUP1 SLOAD PUSH1 0x1 PUSH1 0x1 PUSH1 0xA0 SHL SUB NOT AND CALLER OR SWAP1 SSTORE PUSH2 0x717 DUP1 PUSH2 0x32 PUSH1 0x0 CODECOPY PUSH1 0x0 RETURN INVALID PUSH1 0x80 PUSH1 0x40 MSTORE CALLVALUE DUP1 ISZERO PUSH2 0x10 JUMPI PUSH1 0x0 DUP1 REVERT JUMPDEST POP PUSH1 0x4 CALLDATASIZE LT PUSH2 0x4C JUMPI PUSH1 0x0 CALLDATALOAD PUSH1 0xE0 SHR DUP1 PUSH4 0x5B6BEEB9 EQ PUSH2 0x51 JUMPI DUP1 PUSH4 0x8DA5CB5B EQ PUSH2 0x7C JUMPI DUP1 PUSH4 0x96794ED7 EQ PUSH2 0xA7 JUMPI DUP1 PUSH4 0xF2FDE38B EQ PUSH2 0xBC JUMPI JUMPDEST PUSH1 0x0 DUP1 REVERT JUMPDEST PUSH2 0x64 PUSH2 0x5F CALLDATASIZE PUSH1 0x4 PUSH2 0x429 JUMP JUMPDEST PUSH2 0xCF JUMP JUMPDEST PUSH1 0x40 MLOAD PUSH2 0x73 SWAP4 SWAP3 SWAP2 SWAP1 PUSH2 0x46B JUMP JUMPDEST PUSH1 0x40 MLOAD DUP1 SWAP2 SUB SWAP1 RETURN JUMPDEST PUSH1 0x0 SLOAD PUSH2 0x8F SWAP1 PUSH1 0x1 PUSH1 0x1 PUSH1 0xA0 SHL SUB AND DUP2 JUMP JUMPDEST PUSH1 0x40 MLOAD PUSH1 0x1 PUSH1 0x1 PUSH1 0xA0 SHL SUB SWAP1 SWAP2 AND DUP2 MSTORE PUSH1 0x20 ADD PUSH2 0x73 JUMP JUMPDEST PUSH2 0xBA PUSH2 0xB5 CALLDATASIZE PUSH1 0x4 PUSH2 0x4C8 JUMP JUMPDEST PUSH2 0x1C4 JUMP JUMPDEST STOP JUMPDEST PUSH2 0xBA PUSH2 0xCA CALLDATASIZE PUSH1 0x4 PUSH2 0x542 JUMP JUMPDEST PUSH2 0x30E JUMP JUMPDEST PUSH1 0x0 DUP1 PUSH1 0x60 PUSH1 0x0 PUSH1 0x1 DUP7 DUP7 PUSH1 0x40 MLOAD PUSH2 0xE8 SWAP3 SWAP2 SWAP1 PUSH2 0x572 JUMP JUMPDEST SWAP1 DUP2 MSTORE PUSH1 0x20 ADD PUSH1 0x40 MLOAD DUP1 SWAP2 SUB SWAP1 KECCAK256 PUSH1 0x40 MLOAD DUP1 PUSH1 0x60 ADD PUSH1 0x40 MSTORE SWAP1 DUP2 PUSH1 0x0 DUP3 ADD SLOAD DUP2 MSTORE PUSH1 0x20 ADD PUSH1 0x1 DUP3 ADD SLOAD DUP2 MSTORE PUSH1 0x20 ADD PUSH1 0x2 DUP3 ADD DUP1 SLOAD PUSH2 0x125 SWAP1 PUSH2 0x582 JUMP JUMPDEST DUP1 PUSH1 0x1F ADD PUSH1 0x20 DUP1 SWAP2 DIV MUL PUSH1 0x20 ADD PUSH1 0x40 MLOAD SWAP1 DUP2 ADD PUSH1 0x40 MSTORE DUP1 SWAP3 SWAP2 SWAP1 DUP2 DUP2 MSTORE PUSH1 0x20 ADD DUP3 DUP1 SLOAD PUSH2 0x151 SWAP1 PUSH2 0x582 JUMP JUMPDEST DUP1 ISZERO PUSH2 0x19E JUMPI DUP1 PUSH1 0x1F LT PUSH2 0x173 JUMPI PUSH2 0x100 DUP1 DUP4 SLOAD DIV MUL DUP4 MSTORE SWAP2 PUSH1 0x20 ADD SWAP2 PUSH2 0x19E JUMP JUMPDEST DUP3 ADD SWAP2 SWAP1 PUSH1 0x0 MSTORE PUSH1 0x20 PUSH1 0x0 KECCAK256 SWAP1 JUMPDEST DUP2 SLOAD DUP2 MSTORE SWAP1 PUSH1 0x1 ADD SWAP1 PUSH1 0x20 ADD DUP1 DUP4 GT PUSH2 0x181 JUMPI DUP3 SWAP1 SUB PUSH1 0x1F AND DUP3 ADD SWAP2 JUMPDEST POP POP POP SWAP2 SWAP1 SWAP3 MSTORE POP POP DUP2 MLOAD PUSH1 0x20 DUP4 ADD MLOAD PUSH1 0x40 SWAP1 SWAP4 ADD MLOAD SWAP1 SWAP10 SWAP3 SWAP9 POP SWAP7 POP SWAP1 SWAP5 POP POP POP POP POP JUMP JUMPDEST PUSH1 0x0 SLOAD PUSH1 0x1 PUSH1 0x1 PUSH1 0xA0 SHL SUB AND CALLER EQ PUSH2 0x223 JUMPI PUSH1 0x40 MLOAD PUSH3 0x461BCD PUSH1 0xE5 SHL DUP2 MSTORE PUSH1 0x20 PUSH1 0x4 DUP3 ADD MSTORE PUSH1 0x1E PUSH1 0x24 DUP3 ADD MSTORE PUSH32 0x436F737441756469743A2063616C6C6572206973206E6F74206F776E65720000 PUSH1 0x44 DUP3 ADD MSTORE PUSH1 0x64 ADD JUMPDEST PUSH1 0x40 MLOAD DUP1 SWAP2 SUB SWAP1 REVERT JUMPDEST PUSH1 0x40 MLOAD DUP1 PUSH1 0x60 ADD PUSH1 0x40 MSTORE DUP1 DUP5 DUP2 MSTORE PUSH1 0x20 ADD TIMESTAMP DUP2 MSTORE PUSH1 0x20 ADD DUP4 DUP4 DUP1 DUP1 PUSH1 0x1F ADD PUSH1 0x20 DUP1 SWAP2 DIV MUL PUSH1 0x20 ADD PUSH1 0x40 MLOAD SWAP1 DUP2 ADD PUSH1 0x40 MSTORE DUP1 SWAP4 SWAP3 SWAP2 SWAP1 DUP2 DUP2 MSTORE PUSH1 0x20 ADD DUP4 DUP4 DUP1 DUP3 DUP5 CALLDATACOPY PUSH1 0x0 SWAP3 ADD SWAP2 SWAP1 SWAP2 MSTORE POP POP POP SWAP2 MSTORE POP PUSH1 0x40 MLOAD PUSH1 0x1 SWAP1 PUSH2 0x285 SWAP1 DUP9 SWAP1 DUP9 SWAP1 PUSH2 0x572 JUMP JUMPDEST SWAP1 DUP2 MSTORE PUSH1 0x40 DUP1 MLOAD PUSH1 0x20 SWAP3 DUP2 SWAP1 SUB DUP4 ADD SWAP1 KECCAK256 DUP4 MLOAD DUP2 SSTORE SWAP2 DUP4 ADD MLOAD PUSH1 0x1 DUP4 ADD SSTORE DUP3 ADD MLOAD PUSH1 0x2 DUP3 ADD SWAP1 PUSH2 0x2B5 SWAP1 DUP3 PUSH2 0x621 JUMP JUMPDEST POP POP PUSH1 0x40 MLOAD PUSH2 0x2C8 SWAP2 POP DUP7 SWAP1 DUP7 SWAP1 PUSH2 0x572 JUMP JUMPDEST PUSH1 0x40 DUP1 MLOAD SWAP2 DUP3 SWAP1 SUB DUP3 KECCAK256 DUP6 DUP4 MSTORE TIMESTAMP PUSH1 0x20 DUP5 ADD MSTORE SWAP2 PUSH32 0x7B27B9C7D2FD3B01C0A12618135E893DB0DFE57566C652353D431A28EAA4D038 SWAP2 ADD PUSH1 0x40 MLOAD DUP1 SWAP2 SUB SWAP1 LOG2 POP POP POP POP POP JUMP JUMPDEST PUSH1 0x0 SLOAD PUSH1 0x1 PUSH1 0x1 PUSH1 0xA0 SHL SUB AND CALLER EQ PUSH2 0x368 JUMPI PUSH1 0x40 MLOAD PUSH3 0x461BCD PUSH1 0xE5 SHL DUP2 MSTORE PUSH1 0x20 PUSH1 0x4 DUP3 ADD MSTORE PUSH1 0x1E PUSH1 0x24 DUP3 ADD MSTORE PUSH32 0x436F737441756469743A2063616C6C6572206973206E6F74206F776E65720000 PUSH1 0x44 DUP3 ADD MSTORE PUSH1 0x64 ADD PUSH2 0x21A JUMP JUMPDEST PUSH1 0x1 PUSH1 0x1 PUSH1 0xA0 SHL SUB DUP2 AND PUSH2 0x3BE JUMPI PUSH1 0x40 MLOAD PUSH3 0x461BCD PUSH1 0xE5 SHL DUP2 MSTORE PUSH1 0x20 PUSH1 0x4 DUP3 ADD MSTORE PUSH1 0x17 PUSH1 0x24 DUP3 ADD MSTORE PUSH32 0x436F737441756469743A207A65726F2061646472657373000000000000000000 PUSH1 0x44 DUP3 ADD MSTORE PUSH1 0x64 ADD PUSH2 0x21A JUMP JUMPDEST PUSH1 0x0 DUP1 SLOAD PUSH1 0x1 PUSH1 0x1 PUSH1 0xA0 SHL SUB NOT AND PUSH1 0x1 PUSH1 0x1 PUSH1 0xA0 SHL SUB SWAP3 SWAP1 SWAP3 AND SWAP2 SWAP1 SWAP2 OR SWAP1 SSTORE JUMP JUMPDEST PUSH1 0x0 DUP1 DUP4 PUSH1 0x1F DUP5 ADD SLT PUSH2 0x3F2 JUMPI PUSH1 0x0 DUP1 REVERT JUMPDEST POP DUP2 CALLDATALOAD PUSH8 0xFFFFFFFFFFFFFFFF DUP2 GT ISZERO PUSH2 0x40A JUMPI PUSH1 0x0 DUP1 REVERT JUMPDEST PUSH1 0x20 DUP4 ADD SWAP2 POP DUP4 PUSH1 0x20 DUP3 DUP6 ADD ADD GT ISZERO PUSH2 0x422 JUMPI PUSH1 0x0 DUP1 REVERT JUMPDEST SWAP3 POP SWAP3 SWAP1 POP JUMP JUMPDEST PUSH1 0x0 DUP1 PUSH1 0x20 DUP4 DUP6 SUB SLT ISZERO PUSH2 0x43C JUMPI PUSH1 0x0 DUP1 REVERT JUMPDEST DUP3 CALLDATALOAD PUSH8 0xFFFFFFFFFFFFFFFF DUP2 GT ISZERO PUSH2 0x453 JUMPI PUSH1 0x0 DUP1 REVERT JUMPDEST PUSH2 0x45F DUP6 DUP3 DUP7 ADD PUSH2 0x3E0 JUMP JUMPDEST SWAP1 SWAP7 SWAP1 SWAP6 POP SWAP4 POP POP POP POP JUMP JUMPDEST DUP4 DUP2 MSTORE PUSH1 0x0 PUSH1 0x20 DUP5 DUP2 DUP5 ADD MSTORE PUSH1 0x60 PUSH1 0x40 DUP5 ADD MSTORE DUP4 MLOAD DUP1 PUSH1 0x60 DUP6 ADD MSTORE PUSH1 0x0 JUMPDEST DUP2 DUP2 LT ISZERO PUSH2 0x4A5 JUMPI DUP6 DUP2 ADD DUP4 ADD MLOAD DUP6 DUP3 ADD PUSH1 0x80 ADD MSTORE DUP3 ADD PUSH2 0x489 JUMP JUMPDEST POP PUSH1 0x0 PUSH1 0x80 DUP3 DUP7 ADD ADD MSTORE PUSH1 0x80 PUSH1 0x1F NOT PUSH1 0x1F DUP4 ADD AND DUP6 ADD ADD SWAP3 POP POP POP SWAP5 SWAP4 POP POP POP POP JUMP JUMPDEST PUSH1 0x0 DUP1 PUSH1 0x0 DUP1 PUSH1 0x0 PUSH1 0x60 DUP7 DUP9 SUB SLT ISZERO PUSH2 0x4E0 JUMPI PUSH1 0x0 DUP1 REVERT JUMPDEST DUP6 CALLDATALOAD PUSH8 0xFFFFFFFFFFFFFFFF DUP1 DUP3 GT ISZERO PUSH2 0x4F8 JUMPI PUSH1 0x0 DUP1 REVERT JUMPDEST PUSH2 0x504 DUP10 DUP4 DUP11 ADD PUSH2 0x3E0 JUMP JUMPDEST SWAP1 SWAP8 POP SWAP6 POP PUSH1 0x20 DUP9 ADD CALLDATALOAD SWAP5 POP PUSH1 0x40 DUP9 ADD CALLDATALOAD SWAP2 POP DUP1 DUP3 GT ISZERO PUSH2 0x524 JUMPI PUSH1 0x0 DUP1 REVERT JUMPDEST POP PUSH2 0x531 DUP9 DUP3 DUP10 ADD PUSH2 0x3E0 JUMP JUMPDEST SWAP7 SWAP10 SWAP6 SWAP9 POP SWAP4 SWAP7 POP SWAP3 SWAP5 SWAP4 SWAP3 POP POP POP JUMP JUMPDEST PUSH1 0x0 PUSH1 0x20 DUP3 DUP5 SUB SLT ISZERO PUSH2 0x554 JUMPI PUSH1 0x0 DUP1 REVERT JUMPDEST DUP2 CALLDATALOAD PUSH1 0x1 PUSH1 0x1 PUSH1 0xA0 SHL SUB DUP2 AND DUP2 EQ PUSH2 0x56B JUMPI PUSH1 0x0 DUP1 REVERT JUMPDEST SWAP4 SWAP3 POP POP POP JUMP JUMPDEST DUP2 DUP4 DUP3 CALLDATACOPY PUSH1 0x0 SWAP2 ADD SWAP1 DUP2 MSTORE SWAP2 SWAP1 POP JUMP JUMPDEST PUSH1 0x1 DUP2 DUP2 SHR SWAP1 DUP3 AND DUP1 PUSH2 0x596 JUMPI PUSH1 0x7F DUP3 AND SWAP2 POP JUMPDEST PUSH1 0x20 DUP3 LT DUP2 SUB PUSH2 0x5B6 JUMPI PUSH4 0x4E487B71 PUSH1 0xE0 SHL PUSH1 0x0 MSTORE PUSH1 0x22 PUSH1 0x4 MSTORE PUSH1 0x24 PUSH1 0x0 REVERT JUMPDEST POP SWAP2 SWAP1 POP JUMP JUMPDEST PUSH4 0x4E487B71 PUSH1 0xE0 SHL PUSH1 0x0 MSTORE PUSH1 0x41 PUSH1 0x4 MSTORE PUSH1 0x24 PUSH1 0x0 REVERT JUMPDEST PUSH1 0x1F DUP3 GT ISZERO PUSH2 0x61C JUMPI PUSH1 0x0 DUP2 DUP2 MSTORE PUSH1 0x20 DUP2 KECCAK256 PUSH1 0x1F DUP6 ADD PUSH1 0x5 SHR DUP2 ADD PUSH1 0x20 DUP7 LT ISZERO PUSH2 0x5F9 JUMPI POP DUP1 JUMPDEST PUSH1 0x1F DUP6 ADD PUSH1 0x5 SHR DUP3 ADD SWAP2 POP JUMPDEST DUP2 DUP2 LT ISZERO PUSH2 0x618 JUMPI DUP3 DUP2 SSTORE PUSH1 0x1 ADD PUSH2 0x605 JUMP JUMPDEST POP POP POP JUMPDEST POP POP POP JUMP JUMPDEST DUP2 MLOAD PUSH8 0xFFFFFFFFFFFFFFFF DUP2 GT ISZERO PUSH2 0x63B JUMPI PUSH2 0x63B PUSH2 0x5BC JUMP JUMPDEST PUSH2 0x64F DUP2 PUSH2 0x649 DUP5 SLOAD PUSH2 0x582 JUMP JUMPDEST DUP5 PUSH2 0x5D2 JUMP JUMPDEST PUSH1 0x20 DUP1 PUSH1 0x1F DUP4 GT PUSH1 0x1 DUP2 EQ PUSH2 0x684 JUMPI PUSH1 0x0 DUP5 ISZERO PUSH2 0x66C JUMPI POP DUP6 DUP4 ADD MLOAD JUMPDEST PUSH1 0x0 NOT PUSH1 0x3 DUP7 SWAP1 SHL SHR NOT AND PUSH1 0x1 DUP6 SWAP1 SHL OR DUP6 SSTORE PUSH2 0x618 JUMP JUMPDEST PUSH1 0x0 DUP6 DUP2 MSTORE PUSH1 0x20 DUP2 KECCAK256 PUSH1 0x1F NOT DUP7 AND SWAP2 JUMPDEST DUP3 DUP2 LT ISZERO PUSH2 0x6B3 JUMPI DUP9 DUP7 ADD MLOAD DUP3 SSTORE SWAP5 DUP5 ADD SWAP5 PUSH1 0x1 SWAP1 SWAP2 ADD SWAP1 DUP5 ADD PUSH2 0x694 JUMP JUMPDEST POP DUP6 DUP3 LT ISZERO PUSH2 0x6D1 JUMPI DUP8 DUP6 ADD MLOAD PUSH1 0x0 NOT PUSH1 0x3 DUP9 SWAP1 SHL PUSH1 0xF8 AND SHR NOT AND DUP2 SSTORE JUMPDEST POP POP POP POP POP PUSH1 0x1 SWAP1 DUP2 SHL ADD SWAP1 SSTORE POP JUMP INVALID LOG2 PUSH5 0x6970667358 0x22 SLT KECCAK256 ISZERO LOG2 XOR BLOCKHASH CALLER SWAP2 0xE1 PUSH21 0x6DB80D29020FC2BBEF5F393BFA035804B564B3EEF DUP4 CODESIZE EXTCODECOPY PUSH5 0x736F6C6343 STOP ADDMOD SGT STOP CALLER "},"methodIdentifiers":{"getHash(string)":"5b6beeb9","owner()":"8da5cb5b","storeHash(string,bytes32,string)":"96794ed7","transferOwnership(address)":"f2fde38b"}}}}}